:020000040000FA
:10000000000200106901000071010000730100008E
:100010007501000077010000790100000000000078
:100020000000000000000000000000007B01000054
:100030007D010000000000007F0100008101000040
:1000400083010000830100008301000083010000A0
:100050008301000083010000830100008301000090
:100060008301000083010000830100008301000080
:100070008301000083010000830100008301000070
:100080008301000083010000830100008301000060
:100090008301000083010000830100008301000050
:1000A0008301000083010000830100008301000040
:1000B0008301000083010000830100008301000030
:1000C00083010000830100008301000000F002F8BA
:1000D00000F03AF80AA090E8000C82448344AAF1A8
:1000E0000107DA4501D100F02FF8AFF2090EBAE8A6
:1000F0000F0013F0010F18BFFB1A43F0010318475C
:10010000F803000028040000103A24BF78C878C122
:10011000FAD8520724BF30C830C144BF04680C600D
:10012000704700000023002400250026103A28BF55
:1001300078C1FBD8520728BF30C148BF0B60704759
:100140001FB51FBD10B510BD00F0A7F81146FFF791
:10015000F7FF00F08BF900F0C5F803B4FFF7F2FFEA
:1001600003BC00F0D1F80000094880470948004767
:10017000FEE7FEE7FEE7FEE7FEE7FEE7FEE7FEE757
:10018000FEE7FEE704480549034A054B70470000B7
:100190000D040000CD00000070C007200002001018
:1001A0000000001053EA020C00F069802DE9F04BCA
:1001B0004FF00006002B1FBFB3FA83F503FA05F4D6
:1001C00024FA05F65E4012BF1643B2FA82F502FA2F
:1001D00005F4C5F120051EBF22FA05FC44EA0C0413
:1001E000203556EA044C4FEA144418BF641C4FF003
:1001F00000084FF00009904271EB030C39D300293D
:1002000019BFB1FA81F701FA07F6B0FA80F700FAE0
:1002100007F6C7F120071EBF20FA07FC46EA0C06C6
:100220002037B6FBF4FCA7EB0507103F07F01F0BC8
:10023000CBF120062CFA06F60CFA0BFB44BFB346B2
:100240000026202FA4BF5E464FF0000B5BEA060C91
:1002500008BF4FF0010B19EB0B0948EB0608ABFB8D
:10026000027C06FB02CC0BFB03CCC01B71EB0C0128
:10027000C1E70B46024641464846BDE8F08B13B540
:10028000084318BF4FF0FF300146AFF30080BDE8D0
:100290001C407047704770477047754600F030F853
:1002A000AE4605006946534620F00700854618B063
:1002B00020B5FFF767FFBDE820404FF000064FF084
:1002C00000074FF000084FF0000BAC46ACE8C00947
:1002D000ACE8C009ACE8C009ACE8C00921F00701EE
:1002E0008D46704710B50446AFF300802046BDE848
:1002F0001040FFF732BF704700000000FFFFFFFF14
:100300000048704708C0072001491820ABBEFEE72F
:100310002600020010B54CF28804C4F20F042068D5
:10032000D4F8841000F04070B0F1407F01F0030079
:100330001BD1DFE800F0022840022068226840005C
:1003400080B240F600110230C0F23D01C2F3074214
:10035000A0FB010101320023FFF724FFE26F00231D
:10036000D2B20132FFF71EFF4AE0DFE800F00238A8
:100370004202E06F40F60011C0B20130C0F23D0110
:10038000B1FBF0F03CE020682268400080B241F60A
:1003900000310230C0F2B701C2F30742A0FB0101F5
:1003A00001320023FFF7FEFEE26F0023D2B20132DA
:1003B000FFF7F8FE24E020680021C7F6FF7101EA8C
:1003C00000402168E26FC1F3074100F58030013140
:1003D000B0FBF1F0D1B20131B0FBF1F010E0E06F11
:1003E00041F60031C0B20130C0F2B701B1FBF0F00C
:1003F00006E0E06F4FF40041C0B20130B1FBF0F015
:100400004CF20401C2F20701086010BD4CF2A010CA
:10041000C4F20F00202101600168890603D500BFE6
:1004200001684906FCD5032140F89C1C002181602D
:1004300045F25541C5F25541C160012148F2DE72D5
:1004400040F8941C0421C0F2284240F8981C40F85F
:10045000DC2C40F2011282624FF66062CFF6FF722E
:10046000835861F30F338350704700004CF200044F
:10047000C2F20904FFF7CAFFFFF74CFF4CF200007D
:10048000C4F2020001684CF268026FF317210160A8
:1004900020684CF26C0140F47F6020604CF2000058
:1004A000C2F207004FF0100CC2F207024FF0010E2B
:1004B000C2F2070142F21073C0F800C0C2F800E0B7
:1004C0000568A56105680B606D000560156801355C
:1004D000092D1560F4D3C0F800C0C2F800E000BFD9
:1004E0000568E56105680B606D00056015680135FC
:1004F000092D1560F4D3DFE72805000000C00720B0
:10050000080000000801000028050000000000109D
:1005100000020000240100003005000008C0072090
:10052000680000002401000010000000C0C62D007B
:04000005000000CD2A
:00000001FF
